{
  "_format": "hh-sol-artifact-1",
  "contractName": "Counter",
  "sourceName": "contracts/Counter.sol",
  "abi": [
    {
      "inputs": [],
      "name": "increment",
      "outputs": [],
      "stateMutability": "nonpayable",
      "type": "function"
    },
    {
      "inputs": [],
      "name": "retrieve",
      "outputs": [
        {
          "internalType": "uint256",
          "name": "",
          "type": "uint256"
        }
      ],
      "stateMutability": "view",
      "type": "function"
    }
  ],
  "bytecode": "0x60806040526000805534801561001457600080fd5b50610176806100246000396000f3fe608060405234801561001057600080fd5b50600436106100365760003560e01c80632e64cec11461003b578063d09de08a14610059575b600080fd5b610043610063565b60405161005091906100a0565b60405180910390f35b61006161006c565b005b60008054905090565b600160008082825461007e91906100ea565b92505081905550565b6000819050919050565b61009a81610087565b82525050565b60006020820190506100b56000830184610091565b92915050565b7f4e487b7100000000000000000000000000000000000000000000000000000000600052601160045260246000fd5b60006100f582610087565b915061010083610087565b9250827fffffffffffffffffffffffffffffffffffffffffffffffffffffffffffffffff03821115610135576101346100bb565b5b82820190509291505056fea2646970667358221220a11e0c0636e5ed7ae07b291c35b89720dbef3dbc59e59a99c263aaaf2988840264736f6c63430008090033",
  "linkReferences": {},
  "deployedLinkReferences": {}
}